S00E0000426C696E6B792E73726563AD
S21440000000350020810B40007D0B40007D0B4000FA
S2144000107D0B40007D0B40007D0B40000000000043
S2144000200000000000000000000000007D0B4000C3
S2144000307D0B4000000000007D0B40007D0B400023
S2144000407D0B40007D0B40007D0B40007D0B40004B
S2144000507D0B40007D0B40007D0B40000000000003
S2144000607D0B40007D0B400000000000CD084000A6
S214400070E1084000000000007D0B40007D0B400082
S21440008000000000000000007D0B40007D0B40009B
S2144000907D0B40007D0B40007D0B40007D0B4000FB
S2144000A07D0B40007D0B400000000000000000007B
S2144000B0000000007D0B40007D0B40007D0B4000A3
S2144000C07D0B40007D0B40007D0B400010B5054C7D
S2144000D0237833B9044B13B10448AFF300800123AF
S2144000E0237010BD3C040020000000009012400029
S2144000F00C4B43B10C480D4910B5AFF300800C488B
S214400100036823B910BD0A48036833B97047094BE2
S214400110002BF7D0BDE810401847064B002BF5D013
S214400120184700BF00000000901240004004002026
S214400130901240000000000010B4054C04EA03434F
S214400140C2F30B0213430B43436010BC704700BF1F
S2144001500000FF0F2DE9F04782B0824608254FF099
S2144001608009DFF860800027154E1AE001230093CF
S2144001703B463A464FF480014046B047012400943F
S2144001803B4622464FF400014046B04700943B466B
S2144001903A464FF400014046B04729FA04F9013D7B
S2144001A00AD01AEA090FE1D0012200923B464FF4EA
S2144001B080014046B047E1E702B0BDE8F08700BFA7
S2144001C0B7094000000E0E40F0B583B007460E4E0D
S2144001D00124009400231A464FF4002130460B4D6C
S2144001E0A847009400231A464FF080713046A8472F
S2144001F03846074B98470094002322464FF08071BC
S2144002003046A84703B0F0BD000E0E40B709400088
S21440021055014000F0B583B007460E4E01240094C9
S214400220002322464FF4002130460B4DA847009449
S21440023000231A464FF080713046A8473846074B91
S21440024098470094002322464FF080713046A847D6
S21440025003B0F0BD000E0E40B70940005501400007
S2144002602DE9F04781460F4690461E462A20144DFB
S214400270A8470020134CA047DFF84CA09AF800008F
S2144002804844C0B2A0470020A0479AF80000404427
S214400290C0B2A0472B20A8470020A047DFF82C80FC
S2144002A098F800003844C0B2A0470020A04798F80D
S2144002B000003044C0B2A0472C20A847BDE8F087D5
S2144002C0C90140001502400058040020590400208F
S2144002D010F0800F01D19F2900D9704738B51446D9
S2144002E04B1C421CDBB2D2B2034DA847200A034D3A
S2144002F0A847E0B2A84738BD61024000150240005A
S2144003002DE9F04782B0BDF8286010F0800F50D13C
S21440031090469A469F294CD88318013B7F2BC4BFF2
S214400320C0F180085FFA88F801EB0A03013B9F2B77
S214400330C4BFC1F1A0035FFA83FA4B1E5344421E6A
S2144003404244DBB2D2B21C4CA047370AF6B2DFF8C2
S214400350749001240094002322464FF4002148461E
S214400360164DA847009400231A464FF08071484621
S214400370A847BAF1000F14D0C146114D0CE03846DC
S214400380A8473046A847631E13F0FF04F7D10AF18A
S214400390FF3313F0FF0A04D04C46B8F1000FEED1FD
S2144003A0F5E70122009200234FF080710548034C88
S2144003B0A04702B0BDE8F08761024000B7094000A0
S2144003C055014000000E0E4010B582B00090A023AC
S2144003D0802200210846024CA04702B010BD00BF54
S2144003E00103400010F0800F29D1F0B583B01546C8
S2144003F09F2922D88A18013A9F2AC4BFC1F1A00576
S214400400EDB21F0ADEB24B1E2B44DBB202460C4C4A
S214400410A0470122009200234FF4002109480A4CCD
S214400420A0476C1EE4B245B1084D3846A847304652
S214400430A847013CE4B2FF2CF7D103B0F0BD7047AB
S21440044061024000000E0E40B709400055014000D2
S2144004502DE9F843BDF820801718B8420DDA84B26B
S2144004601E460D46DFF81890434632462946E0B20F
S214400470C8470134A4B2BC42F6DBBDE8F88300BFEF
S214400480E50340002DE9F04F8BB006900491984666
S214400490BDF850909DF8546010F0800F69D19F29A8
S2144004A067D8002E08BF0126A2F12003DBB25F2BDF
S2144004B0134634BF13463F2319460793533B03EB7B
S2144004C08303A1F1200202EB8202089203904FF0D0
S2144004D0000A294AD3180993DFF8A8B03AE0099BE6
S2144004E013F80A703EE0049B59194246C9B2059873
S2144004F0224B98470AE0C84508D0012E19D0CDF8BF
S21440050000903346324621460398D8477F08013547
S2144005103444E4B2072D14D017F0010FEBD0012E6F
S214400520E1D0CDF800803346324621460398D8477E
S214400530ECE7049B59194A46C9B205980F4B9847B1
S214400540E4E70AF1010A039B3344DBB20393BAF1B2
S214400550050F0ED0079B522BC1D8094B089A13445F
S21440056013F80A70049C0025069B5344DBB205939F
S214400570D2E70BB0BDE8F08F7C114000D1024000BE
S2144005807C104000510440002DE9F04F87B00446EF
S214400590029117460393BDF840A09DF8446010466C
S2144005A0244B984780B2002841D006EB860304933C
S2144005B0C6EBC6030333DBB2059306EB46084FEAA9
S2144005C048085FFA88F83D46013880B20130074453
S2144005D0DFF86490DFF864B0334656469A460FE03C
S2144005E02A78CDF804A00096039B02992046D84767
S2144005F04444E4B2802C28BF80240135BD4216D046
S21440060099F80030002BEBD0049BE318802BE7DDF5
S214400610029B059A1344DBB2A02B28BFA02302936B
S2144006202B78202B01D00024DAE70024E5E707B03A
S214400630BDE8F08F810E40000A000020850440008F
S21440064038B52A200A4DA84700200A4CA04700206B
S214400650A0470020A0477F20A0472B20A847002087
S214400660A0470020A0470020A0479F20A04738BDB5
S214400670C90140001502400038B5E020284DA84783
S2144006800220284CA0471C20A0470720A047122045
S214400690A0473720A0473220A0472920A0472D203A
S2144006A0A0472920A0472520A0472B20A047392037
S2144006B0A0470020A0470120A0470320A0471020C5
S2144006C0A047E120A8470320A0471D20A0470720B9
S2144006D0A0470620A0472E20A0472C20A047292030
S2144006E0A0472D20A0472E20A0472E20A0473720E9
S2144006F0A0473F20A0470020A0470020A047022058
S214400700A0471020A0471320A84740F62A30064CA2
S214400710A0472920A84746F69C70A04738BD00BF92
S214400720C9014000150240000100002038B50120F4
S2144007302C4DA8474AF26A702B4CA0471120A84778
S2144007402A48A047B120A8470120294CA0472C2082
S214400750A0472D20A047B220A8470120A0472C2024
S214400760A0472D20A047B320A8470120A0472C2013
S214400770A0472D20A0470120A0472C20A0472D2091
S214400780A047B420A8470720A047C020A847A220DB
S214400790A0470220A0478420A047C120A847C520E4
S2144007A0A047C220A8470A20A0470020A047C32051
S2144007B0A8478A20A0472A20A047C420A8478A20C6
S2144007C0A047EE20A047C520A8470E20A0472020DF
S2144007D0A8473620A847C820A0473A20A847052063
S2144007E0A04738BDC9014000010000200A2E020083
S2144007F01502400070B582B0144E012400940023C8
S21440080022464FF080713046114DA8470094002391
S2144008101A464FF400213046A847009400231A4653
S2144008204FF400013046A847009400231A464FF480
S21440083080013046A847074B9847074B9847074BD9
S21440084098470022064B1A7002B070BD000E0E404C
S214400850B70940002D074000410640007906400099
S214400860D00400202DE9F84381460F46124B9847A6
S21440087005464846114B9847054013D0104C04F1A6
S214400880600603E0B4420DD010345DB12068B84233
S214400890F8D161682942F5D0E3689847636825EA4D
S2144008A00305EFE7074B1B6823B1074B1B680BB1EB
S2144008B048469847BDE8F883DD094000E109400016
S2144008C05C040020D4040020CC04002008B50B2192
S2144008D00148024B984708BD000E0E406508400090
S2144008E008B50C210148024B984708BD00100E4041
S2144008F0650840004264B1F1C05F39D013D8B1F109
S214400900006F25D0B1F1805F0AD1036F13430367B0
S214400910436F416F0B4023EA0203436742607047D0
S2144009200029FBD17047B1F1205F20D009D8B1F142
S214400930005FF3D1036F13430367436F134343676B
S214400940ECE7B1F1405F12D0B1F1605F0FD0E5E760
S21440095010B4016F046FD34321401C461940016711
S214400960436F416F0B4023404367426010BC704763
S214400970036F016F0B4023EA02030367436F134381
S2144009804367CBE7416412F0010F14BF416601662E
S21440099012F00A0F14BF0162416212F0020F07D133
S2144009A012F0080F18BFC0F884104161016070470C
S2144009B0C0F88010F9E710B4019C416444B9016660
S2144009C043B1016542B941630161016010BC7047A3
S2144009D04166F5E74165F5E70163F5E7C06C7047AA
S2144009E0806C704770B582B00D46430903F500131E
S2144009F003F207735C0201F0F043B3F1005F53D09B
S214400A000AD8B3F1805F2DD0B3F1C05F3BD0B3F1CD
S214400A10006F15D0002023E0B3F1405F55D0B3F10E
S214400A20605F52D0B3F1205FF4D100F01F01012681
S214400A302A4606FA01F120462F4B984730460FE0EB
S214400A4000F01F000126864032464FF000612046E7
S214400A502A4B984715F0010F14BF6666266601209C
S214400A6002B070BD00F01F000126864032464FF0AF
S214400A7080512046214B984715F0010F14BF6666FB
S214400A8026660120ECE700F01F000126864032462D
S214400A904FF0C0512046194B984715F0010F14BF30
S214400AA0666626660120DBE700F01F0001268640CA
S214400AB032464FF000512046104B984715F0010F34
S214400AC014BF666626660120CAE705F0605200F04D
S214400AD01F01012605EA06030093C5F38003B2F121
S214400AE0605F14BF0022012206FA01F12046044C42
S214400AF0A0473046B4E700BF85094000F5084000EF
S214400B00B709400022281ED81F280CD8114B9A69D6
S214400B1001238340934318D0012303FA00F00D4B82
S214400B2018610020704720380A4BD3F8082101236B
S214400B30834093430BD0012303FA00F0054BC3F8E0
S214400B4000010020704701207047002070470020B9
S214400B50704700BF00040E4010B54FF000611620ED
S214400B60054CA0474FF000611520A0474FF00061AC
S214400B701720A04710BD00BFE5094000FEE7000073
S214400B8008B5214B214A9A4228D9214B1E4A9A42FF
S214400B900CD2013B9B1A23F00303043313441B4936
S214400BA051F8040B42F8040B9A42F9D100BF194B96
S214400BB0194A9A420AD2013B9B1A23F00303043394
S214400BC01344002142F8041B9A42FBD1134B144AAB
S214400BD09A60144B9847144B9847FEE70A4B0B4ACB
S214400BE09A42E3D20A4B0848181A1146043A02447D
S214400BF00028DBD0C1F1040152F8040943F8040D83
S214400C00CA42F9D1D2E700BF00000020901240004F
S214400C103C040020FC0400203C04002000ED00E0E2
S214400C2000004000050E40003D0C4000014A024BCB
S214400C301A60704700010004000A0E402DE9F04F8C
S214400C4083B0614B9847614B984700231A464FF450
S214400C5000415F485F4CA0470B205F4FB8470B20D2
S214400C60B8475E4D01242C61C5F8A040009400238F
S214400C701A46214628465A4EB0470C20B8470C2004
S214400C80B847584802210161C0F8A01000940023DC
S214400C901A46B0474FF400232B61C5F8A0304FF4F6
S214400CA08018C5F81080C5F8A0804FF080732B617F
S214400CB0C5F8A030009400231A4641462846B0475F
S214400CC043F2CE70484FB847009400232246414630
S214400CD02846B0474FF4800BC5F810B0C5F8A0B012
S214400CE04FF4000AC5F810A0C5F8A0A04AF26A70F2
S214400CF0B84700940023224621462846B047DFF8EE
S214400D0000914846B847009400231A462146284694
S214400D10B0474846B8470094002322462146284616
S214400D20B0474846B847009400231A46214628460E
S214400D30B0474846B84700940023224621462846F6
S214400D40B047009400231A4659462846B0470094B8
S214400D5000231A4651462846B047009400231A46B8
S214400D6041462846B0474AF26A70B8470094002386
S214400D70224641462846B0474AF26A70B8471B4B5F
S214400D8098474AF26A70B8474FF47840184B9847ED
S214400D900194002400944FF6E073164A0A211C2062
S214400DA0154DA8474FF6FF77144E0F4D3A4621464D
S214400DB02046B047632C9ABF0134E4B2002443F285
S214400DC0CE70A847F2E700BF2D0C4000590B4000FC
S214400DD050140E4039014000050B4000000E0E40F6
S214400DE0B709400000100E4001000020F507400003
S214400DF0C90340005812400089054000D102400017
S214400E00135C040070B50F4E0F4D761BB61018BF1E
S214400E10002405D0013455F8043B9847A642F9D142
S214400E200A4E0B4D761B00F021FAB61018BF002470
S214400E3006D0013455F8043B9847A642F9D170BD18
S214400E4070BD00BF7812400078124000801240000B
S214400E507812400000000000000000000000000083
S214400E60000000000000000000000000000000003D
S214400E70000000000000000000000000000000002D
S214400E8090F800F06DE9024520F007016FF0000C85
S214400E9010F0070491F820F040F049804FF000042D
S214400EA06FF00700D1E9002391F840F000F1080008
S214400EB082FA4CF2A4FA8CF283FA4CF3A2FA8CF340
S214400EC04BBBD1E9022382FA4CF200F10800A4FAA7
S214400ED08CF283FA4CF3A2FA8CF3E3B9D1E90423FB
S214400EE082FA4CF200F10800A4FA8CF283FA4CF332
S214400EF0A2FA8CF37BB9D1E9062301F1200182FAEC
S214400F004CF200F10800A4FA8CF283FA4CF3A2FAF1
S214400F108CF3002BC6D0002A04BF04301A4612BAFF
S214400F20B2FA82F2FDE8024500EBD2007047D1E902
S214400F30002304F00305C4F100004FEAC50514F091
S214400F40040F91F840F00CFA05F562EA05021CBF62
S214400F5063EA050362464FF00004A9E7024B13B16B
S214400F60024800F005B87047000000007D0F4000C2
S214400F70002301461A46184600F01EB838B50A4CFB
S214400F800A4D641BA4100AD004F18043013B05EBD4
S214400F908305013C55F804399847002CF9D1BDE843
S214400FA0384000F06DB900BF901240008C124000EF
S214400FB0704700BF704700BF2DE9F8432C4D0646EA
S214400FC0286898460F469146FFF7F2FF294B1C6863
S214400FD0D4F84831002B3ED05A681F2A1CDC02F158
S214400FE0010E76B103EB82010124C1F88890D3F854
S214400FF0880194402043022EC3F88801C1F8088136
S21440100023D00232C3F804E0286843F82270FFF782
S214401010D1FF0020BDE8F883174B0BB34FF4C870E0
S214401020AFF300800346D8B1D4F8482102600021CF
S21440103041600A46C4F848014FF0010EC0F88811D6
S214401040C0F88C11002EDCD0CCE7D3F88C110C43C2
S214401050C3F88C41D5E704F5A673C4F84831BBE71E
S2144010602868FFF7A7FF4FF0FF30BDE8F88300BFC2
S2144010703804002068124000000000000000000015
S2144010800000005F00000007000700147F147F1474
S214401090242A7F2A122313086462364956205000B9
S2144010A008070300001C2241000041221C002A1CA5
S2144010B07F1C2A08083E0808008070300008080890
S2144010C00808000060600020100804023E514945B0
S2144010D03E00427F400072494949462141494D33CE
S2144010E01814127F1027454545393C4A4949314135
S2144010F0211109073649494936464949291E000003
S2144011001400000040340000000814224114141457
S2144011101414004122140802015909063E415D5943
S2144011204E7C1211127C7F494949363E414141224C
S2144011307F4141413E7F494949417F090909013E76
S214401140414151737F0808087F00417F410020409D
S214401150413F017F081422417F404040407F021CAF
S214401160027F7F0408107F3E4141413E7F090909C6
S214401170063E4151215E7F091929460026494949C4
S2144011803203017F01033F4040403F1F2040201F65
S2144011903F4038403F6314081463030478040361F7
S2144011A059494D43007F4141410204081020004107
S2144011B041417F0402010204404040404000030792
S2144011C0080020545478407F2844443838444444E7
S2144011D028384444287F385454541800087E09025E
S2144011E018A4A49C787F0804047800447D4000201E
S2144011F040403D007F1028440000417F40007C0472
S2144012007804787C080404783844444438FC18242D
S214401210241818242418FC7C080404084854545401
S2144012202404043F44243C4040207C1C2040201C96
S2144012303C4030403C44281028444C9090907C449D
S21440124064544C44000836410000007700000041DA
S214401250360800020102040248656C6C6F20576F26
S214401260726C64210000000010000020F8B500BF3A
S214401270F8BC08BC9E4670475D0F4000F100400039
S214401280F8B500BFF8BC08BC9E467047CD0040008D
S214401290BFF35F8F0138FBD17047010000000000AC
S2144012A000000000FC02002064030020CC03002065
S2144012B000000000000000000000000000000000E9
S2144012C000000000000000000000000000000000D9
S2144012D000000000000000000000000000000000C9
S2144012E000000000000000000000000000000000B9
S2144012F000000000000000000000000000000000A9
S2144013000000000000000000000000000000000098
S2144013100000000000000000000000000000000088
S2144013200000000000000000000000000000000078
S2144013300000000000000000000000000000000068
S2144013400000000000000000010000000000000057
S2144013500E33CDAB34126DE6ECDE05000B0000001C
S2144013600000000000000000000000000000000038
S2144013700000000000000000000000000000000028
S2144013800000000000000000000000000000000018
S2144013900000000000000000000000000000000008
S2104016C00000000000000000D8040020DD
S804400B812F
