:020000040040BA
:1000000000350020550840005108400051084000CC
:100010005108400051084000510840000000000015
:100020000000000000000000000000005108400037
:1000300051084000000000005108400051084000F5
:10004000510840005108400051084000510840004C
:1000500051084000510840005108400000000000D5
:10006000510840005108400000000000A105400078
:10007000B505400000000000510840005108400054
:10008000000000000000000051084000510840003E
:1000900051084000510840005108400051084000FC
:1000A000510840005108400000000000000000001E
:1000B0000000000051084000510840005108400075
:1000C00051084000510840005108400010B5054C4F
:1000D000237833B9044B13B10448AFF300800123F4
:1000E000237010BD3C04002000000000480C4000BC
:1000F0000C4B43B10C480D4910B5AFF300800C48D0
:10010000036823B910BD0A48036833B97047094B27
:10011000002BF7D0BDE810401847064B002BF5D058
:10012000184700BF00000000480C400040040020B9
:10013000480C40000000000010B4054C04EA0343E2
:10014000C2F30B0213430B43436010BC704700BF64
:100150000000FF0F2DE9F04F83B0834608274FF0D2
:10016000800A01244FF00009DFF858803E46134D05
:100170001BEA0A0F00944B4614BF22464A464FF42E
:1001800080010F48C0473046A84700944B4622469E
:100190004FF400010A48C0473046A84700944B4638
:1001A0004A464FF400010648C0473046A8474FEA88
:1001B0005A0A013FDCD103B0BDE8F08F01000020F6
:1001C000000E0E408B064000F0B583B007460E4E81
:1001D0000124009400231A464FF4002130460B4DB1
:1001E000A847009400231A464FF080713046A84774
:1001F0003846074B98470094002322464FF0807101
:100200003046A84703B0F0BD000E0E408B064000FC
:1002100055014000F0B583B007460E4E012400940E
:10022000002322464FF4002130460B4DA84700948E
:1002300000231A464FF080713046A8473846074BD6
:1002400098470094002322464FF080713046A8471B
:1002500003B0F0BD000E0E408B064000550140007B
:100260002DE9F04781460F4690461E462A20144D40
:10027000A8470020134CA047DFF84CA09AF80000D4
:100280004844C0B2A0470020A0479AF8000040446C
:10029000C0B2A0472B20A8470020A047DFF82C8041
:1002A00098F800003844C0B2A0470020A04798F852
:1002B00000003044C0B2A0472C20A847BDE8F0871A
:1002C000C9014000150240005804002059040020D4
:1002D00010F0800F01D19F2900D9704738B514461E
:1002E0004B1C421CDBB2D2B2034DA847200A034D7F
:1002F000A847E0B2A84738BD61024000150240009F
:1003000038B52A200A4DA84700200A4CA0470020F3
:10031000A0470020A0477F20A0472B20A84700200F
:10032000A0470020A0470020A0479F20A04738BD3D
:10033000C90140001502400038B5E020284DA8470B
:100340000220284CA0471C20A0470720A0471220CD
:10035000A0473720A0473220A0472920A0472D20C2
:10036000A0472920A0472520A0472B20A0473920BF
:10037000A0470020A0470120A0470320A04710204D
:10038000A047E120A8470320A0471D20A047072041
:10039000A0470620A0472E20A0472C20A0472920B8
:1003A000A0472D20A0472E20A0472E20A047372071
:1003B000A0473F20A0470020A0470020A0470220E0
:1003C000A0471020A0471320A84740F62A30064C2B
:1003D000A0472920A84746F69C70A04738BD00BF1B
:1003E000C9014000150240000100002038B501207D
:1003F0002C4DA8474AF26A702B4CA0471120A84701
:100400002A48A047B120A8470120294CA0472C200A
:10041000A0472D20A047B220A8470120A0472C20AC
:10042000A0472D20A047B320A8470120A0472C209B
:10043000A0472D20A0470120A0472C20A0472D2019
:10044000A047B420A8470720A047C020A847A22063
:10045000A0470220A0478420A047C120A847C5206C
:10046000A047C220A8470A20A0470020A047C320D9
:10047000A8478A20A0472A20A047C420A8478A204E
:10048000A047EE20A047C520A8470E20A047202067
:10049000A8473620A847C820A0473A20A8470520EB
:1004A000A04738BDC9014000010000200A2E02000B
:1004B0001502400070B582B0174E0124009400234D
:1004C00022464FF080713046144DA8470094002317
:1004D0001A464FF400213046A847009400231A46DC
:1004E0004FF400013046A847009400231A464FF409
:1004F00080013046A8470A4B98470A4B98470A4B59
:1005000098473620094B9847C020094B9847094B1C
:100510001C7002B070BD00BF000E0E408B06400084
:10052000ED0340000103400039034000C9014000D1
:1005300015024000D00400202DE9F84381460F4603
:10054000124B984705464846114B9847054013D033
:10055000104C04F1600603E0B4420DD010345DB1DC
:100560002068B842F8D161682942F5D0E36898471D
:10057000636825EA0305EFE7074B1B6823B1074BC8
:100580001B680BB148469847BDE8F883B1064000A8
:10059000B50640005C040020D4040020CC040020F8
:1005A00008B50B210148024B984708BD000E0E40CC
:1005B0003905400008B50C210148024B984708BD99
:1005C00000100E40390540004264B1F1C05F39D0DF
:1005D00013D8B1F1006F25D0B1F1805F0AD1036F5C
:1005E00013430367436F416F0B4023EA02034367E2
:1005F000426070470029FBD17047B1F1205F20D0E5
:1006000009D8B1F1005FF3D1036F13430367436F60
:1006100013434367ECE7B1F1405F12D0B1F1605F83
:100620000FD0E5E710B4016F046FD34321401C469F
:1006300019400167436F416F0B402340436742609D
:1006400010BC7047036F016F0B4023EA020303677E
:10065000436F13434367CBE7416412F0010F14BFAC
:100660004166016612F00A0F14BF0162416212F086
:10067000020F07D112F0080F18BFC0F884104161B3
:1006800001607047C0F88010F9E710B4019C416424
:1006900044B9016643B1016542B94163016101603A
:1006A00010BC70474166F5E74165F5E70163F5E782
:1006B000C06C7047806C704770B582B00D464309BE
:1006C00003F5001303F207735C0201F0F043B3F18A
:1006D000005F53D00AD8B3F1805F2DD0B3F1C05F73
:1006E0003BD0B3F1006F15D0002023E0B3F1405FA1
:1006F00055D0B3F1605F52D0B3F1205FF4D100F078
:100700001F0101262A4606FA01F120462F4B984781
:1007100030460FE000F01F000126864032464FF0C1
:10072000006120462A4B984715F0010F14BF6666FA
:100730002666012002B070BD00F01F000126864031
:1007400032464FF080512046214B984715F0010F5B
:1007500014BF666626660120ECE700F01F00012644
:10076000864032464FF0C0512046194B984715F04D
:10077000010F14BF666626660120DBE700F01F004C
:100780000126864032464FF000512046104B9847D4
:1007900015F0010F14BF666626660120CAE705F052
:1007A000605200F01F01012605EA06030093C5F31D
:1007B0008003B2F1605F14BF0022012206FA01F14A
:1007C0002046044CA0473046B4E700BF590640001D
:1007D000C90540008B06400022281ED81F280CD8CF
:1007E000114B9A6901238340934318D0012303FAE4
:1007F00000F00D4B18610020704720380A4BD3F8E9
:1008000008210123834093430BD0012303FA00F016
:10081000054BC3F8000100207047012070470020FD
:1008200070470020704700BF00040E4010B54FF025
:1008300000611620054CA0474FF000611520A0472D
:100840004FF000611720A04710BD00BFB90640005F
:10085000FEE7000008B5214B214A9A4228D9214BD6
:100860001E4A9A420CD2013B9B1A23F00303043325
:1008700013441B4951F8040B42F8040B9A42F9D176
:1008800000BF194B194A9A420AD2013B9B1A23F026
:10089000030304331344002142F8041B9A42FBD1A2
:1008A000134B144A9A60144B9847144B9847FEE731
:1008B0000A4B0B4A9A42E3D20A4B0848181A1146CF
:1008C000043A02440028DBD0C1F1040152F80409C3
:1008D00043F8040DCA42F9D1D2E700BF000000205E
:1008E000480C40003C040020FC0400203C04002094
:1008F00000ED00E000004000B10A40001109400096
:10090000014A024B1A60704700010004000A0E40C1
:100910002DE9F04F83B05A4B98475A4B9847002324
:100920001A464FF400415848584CA0470B20584FE6
:10093000B8470B20B847574D01242C61C5F8A0409B
:10094000009400231A4621462846534EB0470C20F7
:10095000B8470C20B847514802210161C0F8A010E7
:10096000009400231A46B0474FF400232B61C5F8CA
:10097000A0304FF48018C5F81080C5F8A0804FF063
:1009800080732B61C5F8A030009400231A464146BD
:100990002846B04743F2CE70414FB8470094002339
:1009A000224641462846B0474FF4800BC5F810B0A8
:1009B000C5F8A0B04FF4000AC5F810A0C5F8A0A073
:1009C0004AF26A70B847009400232246214628461E
:1009D000B047DFF8D8904846B847009400231A463D
:1009E00021462846B0474846B8470094002322468F
:1009F00021462846B0474846B847009400231A4687
:100A000021462846B0474846B8470094002322466E
:100A100021462846B047009400231A4659462846E6
:100A2000B047009400231A4651462846B047009428
:100A300000231A4641462846B0474AF26A70B84732
:100A400000940023224641462846B0474AF26A7085
:100A5000B847144B98474AF26A70B84700244FF6DB
:100A6000FF77114E0E4D3A4621462046B047632C83
:100A70009ABF0134E4B2002443F2CE70A847F2E7F3
:100A8000010940002D08400050140E40390140007B
:100A9000D9074000000E0E408B06400000100E40AB
:100AA00001000020B5044000D1024000135C0400A6
:100AB00070B50F4E0F4D761BB61018BF002405D031
:100AC000013455F8043B9847A642F9D10A4E0B4D24
:100AD000761B00F0A7F8B61018BF002406D001342A
:100AE00055F8043B9847A642F9D170BD70BD00BFD0
:100AF000300C4000300C4000380C4000300C4000FE
:100B0000024B13B1024800F005B870470000000026
:100B1000210B4000002301461A46184600F01EB87B
:100B200038B50A4C0A4D641BA4100AD004F1804366
:100B3000013B05EB8305013C55F804399847002C2F
:100B4000F9D1BDE8384000F077B800BF480C40004C
:100B5000440C4000704700BF704700BF2DE9F843C8
:100B60002C4D0646286898460F469146FFF7F2FF3F
:100B7000294B1C68D4F84831002B3ED05A681F2AF4
:100B80001CDC02F1010E76B103EB82010124C1F8F5
:100B90008890D3F8880194402043022EC3F888013E
:100BA000C1F8088123D00232C3F804E0286843F872
:100BB0002270FFF7D1FF0020BDE8F883174B0BB37D
:100BC0004FF4C870AFF300800346D8B1D4F8482181
:100BD0000260002141600A46C4F848014FF0010E4E
:100BE000C0F88811C0F88C11002EDCD0CCE7D3F807
:100BF0008C110C43C3F88C41D5E704F5A673C4F8F7
:100C00004831BBE72868FFF7A7FF4FF0FF30BDE88A
:100C1000F88300BF38040020200C400000000000D2
:100C200010000020F8B500BFF8BC08BC9E46704715
:100C3000010B4000F1004000F8B500BFF8BC08BC53
:080C40009E467047CD00400004
:100C4800BFF35F8F0138FBD1704700000000000040
:100C580000000000FC02002064030020CC030020F8
:100C6800000000000000000000000000000000007C
:100C7800000000000000000000000000000000006C
:100C8800000000000000000000000000000000005C
:100C9800000000000000000000000000000000004C
:100CA800000000000000000000000000000000003C
:100CB800000000000000000000000000000000002C
:100CC800000000000000000000000000000000001C
:100CD800000000000000000000000000000000000C
:100CE80000000000000000000000000000000000FC
:100CF80000000000000000000100000000000000EB
:100D08000E33CDAB34126DE6ECDE05000B000000AF
:100D180000000000000000000000000000000000CB
:100D280000000000000000000000000000000000BB
:100D380000000000000000000000000000000000AB
:100D4800000000000000000000000000000000009B
:0C1078000000000000000000D804002070
:04000005004008555A
:00000001FF
