:020000040040BA
:10000000F83400208505400081054000810540004E
:10001000810540008105400081054000000000008E
:10002000000000000000000000000000810540000A
:10003000810540000000000081054000810540006E
:100040008105400081054000810540008105400098
:10005000810540008105400081054000000000004E
:10006000810540008105400000000000E1024000E1
:10007000F5024000000000008105400081054000BD
:1000800000000000000000008105400081054000E4
:100090008105400081054000810540008105400048
:1000A00081054000810540000000000000000000C4
:1000B00000000000810540008105400081054000EE
:1000C00081054000810540008105400010B5054CC8
:1000D000237833B9044B13B10448AFF300800123F4
:1000E000237010BD3C04002000000000A408400064
:1000F0000C4B43B10C480D4910B5AFF300800C48D0
:10010000036823B910BD0A48036833B97047094B27
:10011000002BF7D0BDE810401847064B002BF5D058
:10012000184700BF00000000A40840004004002061
:10013000A40840000000000010B40B01934214D941
:10014000C9004B0803EBC202B2FBF1F2D3085C1EFC
:100150004FF6FE718C4201D9012017E0416841F44D
:10016000002141600CE0012010E0590801EBC202BF
:10017000B2FBF3F2D3085C1E4FF6FE718C42F2D84C
:10018000120402F4E0221A430262002010BC7047FD
:100190000A4BC0F8E4300023436043628362882343
:1001A0000360242303604FF4807303604FF4002343
:1001B00003604FF400330360704700BF00415355A4
:1001C00070B505460C4616460F4B984700220F4B5C
:1001D0001A60A4B13246216828460D4B9847024662
:1001E00078B96368A1680B4321690B43E1680B434D
:1001F00006490B6069680B436B60104670BD0122B5
:10020000FBE70122F9E700BF9101400058040020FC
:1002100039014000402303607047436913F0020F27
:10022000FBD0C1F30801C1610020704730B587B031
:100230006C460B4D0FCD0FC495E8030084E8030016
:100240000F20084CA0470F20A047074C074A6946DB
:100250002046074B98472046064B984707B030BDCD
:1002600064084000190540000080024000127A0036
:10027000C1014000150240002DE9F84381460F46B8
:10028000124B984705464846114B9847054013D0F6
:10029000104C04F1600603E0B4420DD010345DB19F
:1002A0002068B842F8D161682942F5D0E3689847E0
:1002B000636825EA0305EFE7074B1B6823B1074B8B
:1002C0001B680BB148469847BDE8F883F10340002E
:1002D000F50340005C040020D0040020CC04002082
:1002E00008B50B210148024B984708BD000E0E408F
:1002F0007902400008B50C210148024B984708BD1F
:1003000000100E40790240004264B1F1C05F39D064
:1003100013D8B1F1006F25D0B1F1805F0AD1036F1E
:1003200013430367436F416F0B4023EA02034367A4
:10033000426070470029FBD17047B1F1205F20D0A7
:1003400009D8B1F1005FF3D1036F13430367436F23
:1003500013434367ECE7B1F1405F12D0B1F1605F46
:100360000FD0E5E710B4016F046FD34321401C4662
:1003700019400167436F416F0B4023404367426060
:1003800010BC7047036F016F0B4023EA0203036741
:10039000436F13434367CBE7416412F0010F14BF6F
:1003A0004166016612F00A0F14BF0162416212F049
:1003B000020F07D112F0080F18BFC0F88410416176
:1003C00001607047C0F88010F9E710B4019C4164E7
:1003D00044B9016643B1016542B9416301610160FD
:1003E00010BC70474166F5E74165F5E70163F5E745
:1003F000C06C7047806C704770B582B00D46430981
:1004000003F5001303F207735C0201F0F043B3F14C
:10041000005F53D00AD8B3F1805F2DD0B3F1C05F35
:100420003BD0B3F1006F15D0002023E0B3F1405F63
:1004300055D0B3F1605F52D0B3F1205FF4D100F03A
:100440001F0101262A4606FA01F120462F4B984744
:1004500030460FE000F01F000126864032464FF084
:10046000006120462A4B984715F0010F14BF6666BD
:100470002666012002B070BD00F01F0001268640F4
:1004800032464FF080512046214B984715F0010F1E
:1004900014BF666626660120ECE700F01F00012607
:1004A000864032464FF0C0512046194B984715F010
:1004B000010F14BF666626660120DBE700F01F000F
:1004C0000126864032464FF000512046104B984797
:1004D00015F0010F14BF666626660120CAE705F015
:1004E000605200F01F01012605EA06030093C5F3E0
:1004F0008003B2F1605F14BF0022012206FA01F10D
:100500002046044CA0473046B4E700BF99034000A2
:1005100009034000CB03400022281ED81F280CD816
:10052000114B9A6901238340934318D0012303FAA6
:1005300000F00D4B18610020704720380A4BD3F8AB
:1005400008210123834093430BD0012303FA00F0D9
:10055000054BC3F8000100207047012070470020C0
:1005600070470020704700BF00040E4008B54FF0F0
:1005700000611620014B984708BD00BFF9034000F9
:10058000FEE7000008B5214B214A9A4228D9214BA9
:100590001E4A9A420CD2013B9B1A23F003030433F8
:1005A00013441B4951F8040B42F8040B9A42F9D149
:1005B00000BF194B194A9A420AD2013B9B1A23F0F9
:1005C000030304331344002142F8041B9A42FBD175
:1005D000134B144A9A60144B9847144B9847FEE704
:1005E0000A4B0B4A9A42E3D20A4B0848181A1146A2
:1005F000043A02440028DBD0C1F1040152F8040996
:1006000043F8040DCA42F9D1D2E700BF0000002030
:10061000A40840003C040020F80400203C04002012
:1006200000ED00E000004000F506400041064000FB
:10063000014A024B1A60704700010004000A0E4094
:1006400080B582B0224B9847224B98470B20224C12
:10065000A0470B20A047214801210161C0F8A0104C
:10066000009100231A461E4CA0471E4B9847DFF806
:100670006C8000272646012400943B4622462146F2
:100680004046B04746F69C70174DA84700943B463D
:100690003A4621464046B04746F69C70A847134D5F
:1006A00041212846124CA04761212846A0474221FB
:1006B0002846A04743212846A04731212846A04785
:1006C00032212846A0470A212846A047D3E700BF89
:1006D000310640006D05400019054000000E0E4037
:1006E000CB0340002D0240000100002000800240AA
:1006F0001B02400070B50F4E0F4D761BB61018BF91
:10070000002405D0013455F8043B9847A642F9D19E
:100710000A4E0B4D761B00F0B3F8B61018BF00243C
:1007200006D0013455F8043B9847A642F9D170BD74
:1007300070BD00BF8C0840008C0840009408400049
:100740008C084000024B13B1024800F005B8704716
:100750000000000065074000002301461A461846C5
:1007600000F01EB838B50A4C0A4D641BA4100AD01C
:1007700004F18043013B05EB8305013C55F8043946
:100780009847002CF9D1BDE8384000F083B800BF8D
:10079000A4084000A0084000704700BF704700BF99
:1007A0002DE9F8432C4D0646286898460F46914699
:1007B000FFF7F2FF294B1C68D4F84831002B3ED0DC
:1007C0005A681F2A1CDC02F1010E76B103EB82018C
:1007D0000124C1F88890D3F8880194402043022E68
:1007E000C3F88801C1F8088123D00232C3F804E0BD
:1007F000286843F82270FFF7D1FF0020BDE8F88396
:10080000174B0BB34FF4C870AFF300800346D8B159
:10081000D4F848210260002141600A46C4F848012A
:100820004FF0010EC0F88811C0F88C11002EDCD0FA
:10083000CCE7D3F88C110C43C3F88C41D5E704F511
:10084000A673C4F84831BBE72868FFF7A7FF4FF04D
:10085000FF30BDE8F88300BF380400207C0840006A
:100860000000000080250000C0000000000800001B
:100870000000000000000000000000001000002048
:10088000F8B500BFF8BC08BC9E467047450740005D
:10089000F1004000F8B500BFF8BC08BC9E467047A8
:0408A000CD00400047
:1008A400BFF35F8F0138FBD17047000000000000E8
:1008B40000000000FC02002064030020CC030020A0
:1008C4000000000000000000000000000000000024
:1008D4000000000000000000000000000000000014
:1008E4000000000000000000000000000000000004
:1008F40000000000000000000000000000000000F4
:1009040000000000000000000000000000000000E3
:1009140000000000000000000000000000000000D3
:1009240000000000000000000000000000000000C3
:1009340000000000000000000000000000000000B3
:1009440000000000000000000000000000000000A3
:100954000000000000000000010000000000000092
:100964000E33CDAB34126DE6ECDE05000B00000057
:100974000000000000000000000000000000000073
:100984000000000000000000000000000000000063
:100994000000000000000000000000000000000053
:1009A4000000000000000000000000000000000043
:0C0CD4000000000000000000D40400201C
:04000005004005852D
:00000001FF
