:1000000012C02CC02BC02AC029C028C0E0C226C004
:1000100025C024C023C022C021C020C01FC01EC0D4
:100020001DC01CC01BC011241FBECFE5D4E0DEBF25
:10003000CDBF11E0A0E6B0E0EEE1FDE002C005902A
:100040000D92A03DB107D9F712E0A0EDB1E001C0DB
:100050001D92A939B107E1F702D05FC6D1CF2F9227
:100060003F924F925F926F927F928F929F92AF9248
:10007000BF92CF92DF92EF92FF920F931F93DF9385
:10008000CF9300D000D00F92CDB7DEB78EE087BB04
:1000900083E084BB80EC81BB18BA15BA82BB1FBC5D
:1000A0008DE08EBD1BBC1ABC84E189BF7894A09002
:1000B000F701B090F801209168002B833091DF01A7
:1000C0003A834091F5015091F6015D834C83509144
:1000D000F40159833090E1012090F9012A948A813A
:1000E0006AE0E8D5C82EDD248A81829586958695BA
:1000F0008370E82EFF24132D1F5F0FE18091F10123
:10010000882381F18091F001873948F08EE185BD27
:100110008091F001809583BD88E592E01DC08091BB
:10012000F0018B3030F09EE195BD13BD80E991E088
:1001300013C08091F0018A30A8F48091F2018823E5
:1001400071F0ACE1A5BD8091F201B4E18B9FC001DB
:10015000112483BD80E293E00197F1F703C015BC41
:1001600013BCC398B29B12C1E2E0E5BB8091FA01D7
:1001700080910D028091FA01FB818F1749F08091E7
:1001800065009091660001969093660080936500EB
:100190002C813D812F5F3F4F3D832C838091FA015D
:1001A0008230F9F0833020F4813009F0EBC007C0D1
:1001B000833009F478C0843009F0E4C09AC080919B
:1001C0006700882319F03C8135BD02C04EE145BD72
:1001D00080910D0283BD55E1A516B10408F4D2C08B
:1001E000CEC080916700882319F08C8185BD02C044
:1001F0009DE195BD40910D028C819D8190958195E9
:100200009F4F68EC70E062D5AC81BD8102C0AA0F3F
:10021000BB1F6A95E2F79D018C819D8160E971E0C9
:1002200055D5EC81FD8102C0EE0FFF1F6A95E2F704
:100230002E2B8C819D818456904060E273E046D5E0
:100240008C819D8102C0880F991F6A95E2F7BC01DD
:10025000660F672F661F770B7195262B240F23BD22
:1002600083B5882371F4E0910D02E695E695F0E000
:10027000EA59FF4F91E09083AC81BD81D296BD8356
:10028000AC8380910D026EE115D590E00597EC816D
:10029000FD81E80FF91FFD83EC83F5E1AF16B10492
:1002A00008F470C06CC080916700882319F02C811D
:1002B00025BD02C03DE135BD90910D02EC81FD816F
:1002C000EF2FFF27E695E695E153FF4F8081980FCA
:1002D00093BD80910D0244EB50E0481B5109AC8165
:1002E000BD81A40FB51FBD83AC830894A11CB11CB4
:1002F00049C020910D028C819D81909581959F4FE1
:100300006BE070E0E3D4362F8C819D81622F70E02A
:10031000DDD4362B3077632F70E0AB014C0D5D1DC3
:100320004831510544F480916700882319F0BC815D
:10033000B5BD01C005BD493151054CF08091670044
:10034000882319F0EC81E5BD02C0FDE1F5BDE09127
:100350000D02E695E695F0E0E75AFD4FCB018E0DD4
:100360009F1D63E070E0C6D4848380910D02869562
:100370008695380F33BD25E1A216B10418F0089414
:10038000A108B1083091FA013B8306C041E045BBAA
:1003900015BC13BCC398198280919502882371F013
:1003A000812F6AEF87D4992349F480916500909159
:1003B000660001969093660080936500812F8F5FA1
:1003C000B19902C0182F9ACEEC81FD81C1988C8121
:1003D0009D8164E170E07AD48A505A81580F5A8323
:1003E00020916500309166008091650090916600D3
:1003F0008091650090916600292F2295217080914F
:10040000650090916600492F42954695469541704A
:10041000532F517030FF09C081E08093EA01809131
:10042000FA0181508093A90002C01092EA012223B0
:1004300061F080916500909166009695879580FFA8
:1004400004C091E09093670002C010926700109280
:10045000590230900D02310E442391F0552341F0A2
:1004600080916A00853060F480910D028F5F06C034
:1004700080910D02A981A89F802D1124809359029B
:1004800086E080935602CF0160E570E01FD42B0117
:10049000420C511CCF0168EE73E018D4CB0164E12B
:1004A00070E014D46C012AE6622E20E0722E96E1F0
:1004B000E92E92E0F92EBA818B2E992400E010E00B
:1004C0008091FA01833009F04AC020910D0283B572
:1004D000EFEFF0E0E81BF1090E9FC0010F9F900DB8
:1004E0001E9F900D11246AE070E004D4FB01E40D1E
:1004F000F51DF070E153FF4F8081482F50E02695A5
:100500002695C801821B91099C0197FF03C0309575
:1005100021953F4F429FC001439F900D529F900DE8
:10052000112468EE73E0D2D39B0180910D02869571
:100530008695D801A81BB109CD01B7FF03C09095DE
:1005400081959F4F65EF7FEFD5D36A5F7F4F620F35
:10055000731FF70160836D30F8F02CE01CC031EDA3
:10056000A31637E0B306A8F049EBA4164BE0B40697
:1005700020F088EBA82E8BE0B82EF401F070E15348
:10058000FF4F808190E065E170E0A0D3D7016C93CC
:1005900003C026E0F7012083D30111968C91F3016B
:1005A00081933F010F5F1F4F0894E11CF11C8C0CDD
:1005B0009D1C0034110509F083CFE8E9F2E0808149
:1005C0008183319722E0E835F207C9F787CD1F9282
:1005D0000F920FB60F9211242F933F934F935F9377
:1005E0006F937F938F939F93AF93BF93EF93FF93FB
:1005F0002091D0013091D101A9014F5F5F4F5093FD
:10060000D1014093D00181E04133580709F062C124
:10061000809160009091D301813009F0B6C082E0F2
:10062000809360001092D1011092D001992349F07B
:100630008091D201882329F48091CE00815080934B
:10064000D2018091D20181508093D6018091D30153
:1006500090E003979093D8018093D7010C969093E4
:10066000DA018093D90141979093620080936100F1
:10067000469690936400809363001092D20110928A
:10068000D301F89412BA49E1842F8A95F1F780E4F6
:1006900082BB31E9932F9A95F1F712BA2CE0922F91
:1006A0009A95F1F782BB9EE9592F5A95F1F712BA44
:1006B000522F5A95F1F782BB592F5A95F1F712BA7A
:1006C000522F5A95F1F782BB592F5A95F1F712BA6A
:1006D000522F5A95F1F782BB592F5A95F1F712BA5A
:1006E000522F5A95F1F782BB592F5A95F1F712BA4A
:1006F000532F5A95F1F782BB542F5A95F1F712BA3E
:10070000532F5A95F1F782BB542F5A95F1F712BA2D
:10071000532F5A95F1F782BB542F5A95F1F712BA1D
:10072000532F5A95F1F782BB542F5A95F1F712BA0D
:100730003A95F1F782BB4A95F1F712BA322F3A9502
:10074000F1F782BB392F3A95F1F712BA322F3A9569
:10075000F1F782BB392F3A95F1F712BA322F3A9559
:10076000F1F782BB392F3A95F1F712BA322F3A9549
:10077000F1F782BB392F3A95F1F712BA2A95F1F7C2
:1007800082BB9A95F1F7789484C281E080936000EF
:100790001092D1011092D001992349F08091D20199
:1007A000882329F48091CE0081508093D2018091DA
:1007B000D20181508093D6018091D3018093DB01D7
:1007C0001092DC0190E006969093DE018093DD01AB
:1007D0000E97909362008093610046969093640018
:1007E000809363001092D4011092D501F89412BA4C
:1007F0004CE0842F8A95F1F780E482BB3EE9932F89
:100800009A95F1F712BA942F9A95F1F782BB932F2C
:100810009A95F1F712BA942F9A95F1F782BB932F1C
:100820009A95F1F712BA942F9A95F1F782BB932F0C
:100830009A95F1F712BA942F9A95F1F782BB932FFC
:100840009A95F1F712BA21E9922F9A95F1F782BBA6
:1008500099E1592F5A95F1F712BA522F5A95F1F79B
:1008600082BB592F5A95F1F712BA522F5A95F1F7C8
:1008700082BB592F5A95F1F712BA522F5A95F1F7B8
:1008800082BB592F5A95F1F712BA2A95F1F782BB1C
:100890009A95F1F712BA942F9A95F1F782BB932F9C
:1008A0009A95F1F712BA942F9A95F1F782BB932F8C
:1008B0009A95F1F712BA942F9A95F1F782BB932F7C
:1008C0009A95F1F712BA4A95F1F782BB3A95F1F78A
:1008D0007894DFC112BA89E18A95F1F790E492BB6E
:1008E00088E28A95F1F78091F0018A3F08F0ACC068
:1008F00081E08093F10185E08A95F1F74832510556
:1009000071F48091DF018F5F8093DF018091F001AE
:10091000882329F08091F0018E5F8093F00180910F
:10092000F001873910F420E003C02091F00126592E
:100930008091F001869580FD72C06091D001709128
:10094000D101CB018D589040439760F5862F83529B
:100950008093570298E09A95F1F78695877041E069
:1009600050E002C0440F551F8A95E2F7822F90E0B5
:10097000EE27FF27E81BF90BE555FF4FB0E4A0EC8D
:100980002DEC30E0281B390B808190E084239523E7
:10099000892B11F0A2BB02C0B2BB00003196E21756
:1009A000F30791F7CB018B5A90408997C0F580915E
:1009B000F0018639A0F5862F8A5A809357028AE57E
:1009C0008A95F1F71092F20120E030E050EC40E41B
:1009D00000008091DF01869590E08F73907028175A
:1009E000390721F442BB2093F20103C052BB10929D
:1009F000F2012F5F3F4F2530310551F780E482BB74
:100A000090E09A9B09C08091F001882329F480919D
:100A1000F0018F5F8093F0019F5F9A3091F780E43F
:100A200082BB8091EB018F5F8093EB018091EB01A2
:100A300080FF2DC18091EC019091ED010196909382
:100A4000ED018093EC0123C11092F1012852304056
:100A5000233F310508F0FDC0542F585250935702E0
:100A6000852F86958695282F30E0F901E75AFD4FAE
:100A7000E081EE2329F192BB80E38A95F1F7000033
:100A80000000000000000000000000000000000066
:100A900080E090E420EC92BB000000000000000029
:100AA0000000E23018F022BB000003C092BB00003F
:100AB00000008F5F893179F780E482BB82BBE7C099
:100AC00080916700882319F080E882BB03C092BB45
:100AD000000000008AE18A95F1F7F901EA5EFD4F16
:100AE000E08180E002C000008F5F8E17E0F340E0FD
:100AF00070EC60E4F901E659FF4FB0E8252F30E0D3
:100B0000A52FAC5FA0C000000000000000000000A6
:100B10000000481770F40000000000000000000012
:100B200000008081841719F062BB72BB0CC0B2BB9D
:100B300009C00000000000000000000000000000EC
:100B4000000072BB62BB8091D301851779F480915C
:100B5000D201882339F49A9B03C04093D2010FC07D
:100B600000000DC000000000000009C000000000EF
:100B70000000000000000000000000000000809164
:100B8000D601481741F58091D7019091D80182177D
:100B90009307A0F48091D9019091DA0128173907C1
:100BA00038F4B2BB0000000000000000000028C0C4
:100BB0000000000000000000000022C00000000053
:100BC0000000000000000000000000000000000025
:100BD0000000000015C00000000000000000000040
:100BE0000000000000000000000000000000000005
:100BF00000000000000000000000000000000000F5
:100C00008091D301882339F49A9B03C0A093D30128
:100C100007C0000005C00000000000000000000048
:100C20008091CE00481728F48081841711F072BBA0
:100C300001C062BB000000000000000000000000D6
:100C4000000000004F5F8091CE00841708F05BCF5A
:100C50001EC04E515140D9F4C19A8091FA018823A7
:100C600031F480910D02882311F4C29801C0C29A18
:100C70008091D2018093FA019091D30190930D025B
:100C8000882321F4992311F4C29801C0C29A80E408
:100C900082BBFF91EF91BF91AF919F918F917F9117
:100CA0006F915F914F913F912F910F900FBE0F90D9
:100CB0001F901895991B79E004C0991F961708F0AA
:100CC000961B881F7A95C9F780950895AA1BBB1BB0
:100CD00051E107C0AA1FBB1FA617B70710F0A61B3C
:100CE000B70B881F991F5A95A9F780959095BC015D
:100CF000CD01089597FB092E07260AD077FD04D071
:100D0000E5DF06D000201AF4709561957F4F0895B5
:0E0D1000F6F7909581959F4F0895F894FFCFC8
:100D1E000132003200002001FF1905050505050509
:100D2E000505050505050505050505050505050565
:100D3E000505050505050505050505050505050555
:100D4E000505050505050505050505050505050545
:100D5E0005050505050505050505051F10001F10F0
:100D6E001F001F011F011F001F1515001F011F006F
:100D7E001F111F001F0017151D001F151500047FE2
:100D8E008285888B8E9194979A9DA0A3A6A9ACAFCD
:100D9E00B2B5B8BABDC0C2C5C8CACDCFD1D4D6D8E7
:100DAE00DADDDFE1E3E5E6E8EAEBEDEFF0F1F3F4AF
:100DBE00F5F6F7F8F9FAFAFBFCFCFDFDFDFDFDFE7C
:100DCE00FDFDFDFDFDFCFCFBFAFAF9F8F7F6F5F476
:100DDE00F3F1F0EFEDEBEAE8E6E5E3E1DFDDDAD89B
:100DEE00D6D4D1CFCDCAC8C5C2C0BDBAB8B5B2AFC0
:100DFE00ACA9A6A3A09D9A9794918E8B8885827E8E
:100E0E007B7875726F6C696663605D5A5754514E8C
:100E1E004B484543403D3B383533302E2C29272552
:100E2E0023201E1C1A1817151312100E0D0C0A096A
:100E3E00080706050403030201010000000000007C
:100E4E000000000000010102030304050607080963
:100E5E000A0C0D0E1012131517181A1C1E2023251E
:100E6E0027292C2E303335383B3D404345484B4ED9
:100E7E005154575A5D606366696C6F7275787B006A
:00000001FF
