:020000040040BA
:10000000F8340020110640000D0640000D064000A7
:100010000D0640000D0640000D06400000000000E7
:100020000000000000000000000000000D0640007D
:100030000D064000000000000D0640000D064000C7
:100040000D0640000D0640000D0640000D06400064
:100050000D0640000D0640000D06400000000000A7
:100060000D0640000D064000000000005D0340004A
:1000700071034000000000000D0640000D06400026
:1000800000000000000000000D0640000D064000CA
:100090000D0640000D0640000D0640000D06400014
:1000A0000D0640000D0640000000000000000000AA
:1000B000000000000D0640000D0640000D06400047
:1000C0000D0640000D0640000D06400010B5054C21
:1000D000237833B9044B13B10448AFF300800123F4
:1000E000237010BD3C04002000000000F008400018
:1000F0000C4B43B10C480D4910B5AFF300800C48D0
:10010000036823B910BD0A48036833B97047094B27
:10011000002BF7D0BDE810401847064B002BF5D058
:10012000184700BF00000000F00840004004002015
:10013000F00840000000000008B5074B984208D0C6
:1001400003F5804398420CBF0F200020034B9847D3
:1001500008BD0E20FAE700BF0040024095054000B0
:1001600010B584B004460093C0230193029200238B
:100170000393064A6946064B98472046054B984725
:100180002046054B984704B010BD00BF00093D0054
:10019000D90140009B0240009502400008B5014B88
:1001A000984708BDA10240000A4BC0F8E430002384
:1001B00043604362836288230360242303604FF417
:1001C000807303604FF4002303604FF40033036037
:1001D000704700BF0041535570B506460C461546A2
:1001E0002A4B984700222A4B1A60002C49D0A3685A
:1001F000032B01D9012070BD236805EB5305B5FB26
:10020000F3F52A1F4FF6FB739A423CD835626368B8
:10021000E268134343F4802242F00E021C490A6054
:10022000A268032A0BD8DFE802F002111C2323F492
:10023000803343F4802343F48773154A1360736853
:10024000134A126813437360002070BD23F4803397
:1002500023F4807343F4802343F00E030C4A1360AD
:10026000EDE743F4A02343F48773094A1360E6E7FC
:1002700023F4807343F4A02343F00E03044A136075
:10028000DDE7012070BD012070BD00BFA901400065
:100290005804002040230360704710230360704718
:1002A000436913F0020FFBD0C1F30801C1610020C4
:1002B0007047000030B585B00F20094CA0470F20D3
:1002C000A047084C00230093074B032203A92046B4
:1002D000064DA8472046064B984705B030BD00BFE5
:1002E0009505400000800240801A06006101400030
:1002F000390140002DE9F84381460F46124B9847DB
:1003000005464846114B9847054013D0104C04F160
:10031000600603E0B4420DD010345DB12068B842ED
:10032000F8D161682942F5D0E3689847636825EA07
:100330000305EFE7074B1B6823B1074B1B680BB1A5
:1003400048469847BDE8F8836D04400071044000BA
:100350005C040020D0040020CC04002008B50B2150
:100360000148024B984708BD000E0E40F5024000C0
:1003700008B50C210148024B984708BD00100E40FB
:10038000F50240004264B1F1C05F39D013D8B1F139
:10039000006F25D0B1F1805F0AD1036F134303676B
:1003A000436F416F0B4023EA02034367426070478B
:1003B0000029FBD17047B1F1205F20D009D8B1F1FD
:1003C000005FF3D1036F13430367436F1343436726
:1003D000ECE7B1F1405F12D0B1F1605F0FD0E5E71B
:1003E00010B4016F046FD34321401C4619400167CC
:1003F000436F416F0B4023404367426010BC70471E
:10040000036F016F0B4023EA02030367436F13433B
:100410004367CBE7416412F0010F14BF41660166E8
:1004200012F00A0F14BF0162416212F0020F07D1ED
:1004300012F0080F18BFC0F88410416101607047C6
:10044000C0F88010F9E710B4019C416444B901661A
:1004500043B1016542B941630161016010BC70475D
:100460004166F5E74165F5E70163F5E7C06C704764
:10047000806C704770B582B00D46430903F50013D8
:1004800003F207735C0201F0F043B3F1005F53D055
:100490000AD8B3F1805F2DD0B3F1C05F3BD0B3F188
:1004A000006F15D0002023E0B3F1405F55D0B3F1C9
:1004B000605F52D0B3F1205FF4D100F01F0101263C
:1004C0002A4606FA01F120462F4B984730460FE0A6
:1004D00000F01F000126864032464FF000612046A2
:1004E0002A4B984715F0010F14BF66662666012057
:1004F00002B070BD00F01F000126864032464FF06A
:1005000080512046214B984715F0010F14BF6666B5
:1005100026660120ECE700F01F00012686403246E7
:100520004FF0C0512046194B984715F0010F14BFEA
:10053000666626660120DBE700F01F000126864084
:1005400032464FF000512046104B984715F0010FEE
:1005500014BF666626660120CAE705F0605200F007
:100560001F01012605EA06030093C5F38003B2F1DB
:10057000605F14BF0022012206FA01F12046044CFC
:10058000A0473046B4E700BF150440008503400093
:100590004704400022281ED81F280CD8114B9A6906
:1005A00001238340934318D0012303FA00F00D4B3D
:1005B00018610020704720380A4BD3F80821012326
:1005C000834093430BD0012303FA00F0054BC3F89B
:1005D0000001002070470120704700207047002074
:1005E000704700BF00040E4010B54FF000611620A8
:1005F000054CA0474FF000611520A0474FF0006167
:100600001720A04710BD00BF75044000FEE70000A2
:1006100008B5214B214A9A4228D9214B1E4A9A42B9
:100620000CD2013B9B1A23F00303043313441B49F0
:1006300051F8040B42F8040B9A42F9D100BF194B50
:10064000194A9A420AD2013B9B1A23F0030304334E
:100650001344002142F8041B9A42FBD1134B144A65
:100660009A60144B9847144B9847FEE70A4B0B4A85
:100670009A42E3D20A4B0848181A1146043A024437
:100680000028DBD0C1F1040152F8040943F8040D3D
:10069000CA42F9D1D2E700BF00000020F0084000B4
:1006A0003C040020F80400203C04002000ED00E0A1
:1006B0000000400059074000CD064000014A024BAF
:1006C0001A60704700010004000A0E4080B582B035
:1006D000184B9847184B98470B20184CA0470B20F5
:1006E000A047174801210161C0F8A0100091002324
:1006F0001A46144CA047144B9847DFF84480002753
:100700002646012400943B46224621464046B047F7
:1007100046F69C700D4DA84700943B463A4621464C
:100720004046B04746F69C70A84737210848094B19
:100730009847E6E7BD064000E90540009505400002
:10074000000E0E4047044000B502400001000020AA
:10075000008002409D01400070B50F4E0F4D761B8A
:10076000B61018BF002405D0013455F8043B984753
:10077000A642F9D10A4E0B4D761B00F0A7F8B61031
:1007800018BF002406D0013455F8043B9847A64210
:10079000F9D170BD70BD00BFD8084000D808400036
:1007A000E0084000D8084000024B13B1024800F0B6
:1007B00005B8704700000000C9074000002301464B
:1007C0001A46184600F01EB838B50A4C0A4D641B8C
:1007D000A4100AD004F18043013B05EB8305013CE2
:1007E00055F804399847002CF9D1BDE8384000F09D
:1007F00077B800BFF0084000EC084000704700BF29
:10080000704700BF2DE9F8432C4D064628689846EE
:100810000F469146FFF7F2FF294B1C68D4F8483188
:10082000002B3ED05A681F2A1CDC02F1010E76B163
:1008300003EB82010124C1F88890D3F88801944029
:100840002043022EC3F88801C1F8088123D0023268
:10085000C3F804E0286843F82270FFF7D1FF0020B6
:10086000BDE8F883174B0BB34FF4C870AFF30080AB
:100870000346D8B1D4F848210260002141600A46FD
:10088000C4F848014FF0010EC0F88811C0F88C116F
:10089000002EDCD0CCE7D3F88C110C43C3F88C418C
:1008A000D5E704F5A673C4F84831BBE72868FFF71D
:1008B000A7FF4FF0FF30BDE8F88300BF38040020E9
:1008C000C80840000000000010000020F8B500BF7C
:1008D000F8BC08BC9E467047A9074000F1004000E4
:1008E000F8B500BFF8BC08BC9E467047CD0040007C
:1008F000BFF35F8F0138FBD170470000000000009C
:1009000000000000FC02002064030020CC03002053
:1009100000000000000000000000000000000000D7
:1009200000000000000000000000000000000000C7
:1009300000000000000000000000000000000000B7
:1009400000000000000000000000000000000000A7
:100950000000000000000000000000000000000097
:100960000000000000000000000000000000000087
:100970000000000000000000000000000000000077
:100980000000000000000000000000000000000067
:100990000000000000000000000000000000000057
:1009A0000000000000000000010000000000000046
:1009B0000E33CDAB34126DE6ECDE05000B0000000B
:1009C0000000000000000000000000000000000027
:1009D0000000000000000000000000000000000017
:1009E0000000000000000000000000000000000007
:1009F00000000000000000000000000000000000F7
:0C0D20000000000000000000D4040020CF
:0400000500400611A0
:00000001FF
