:020000040040BA
:10000000003500208D074000890740008907400027
:100010008907400089074000890740000000000070
:100020000000000000000000000000008907400000
:100030008907400000000000890740008907400050
:100040008907400089074000890740008907400070
:100050008907400089074000890740000000000030
:10006000890740008907400000000000D9044000D3
:10007000ED044000000000008907400089074000AF
:1000800000000000000000008907400089074000D0
:100090008907400089074000890740008907400020
:1000A00089074000890740000000000000000000B0
:1000B00000000000890740008907400089074000D0
:1000C00089074000890740008907400010B5054CAA
:1000D000237833B9044B13B10448AFF300800123F4
:1000E000237010BD3C04002000000000040B400001
:1000F0000C4B43B10C480D4910B5AFF300800C48D0
:10010000036823B910BD0A48036833B97047094B27
:10011000002BF7D0BDE810401847064B002BF5D058
:10012000184700BF00000000040B400040040020FE
:10013000040B40000000000008B5074B984208D0AF
:1001400003F5804398420CBF0F200020034B9847D3
:1001500008BD0E20FAE700BF004002401107400032
:1001600010B584B004460093C0230193029200238B
:100170000393064A6946064B98472046054B984725
:100180002046054B984704B010BD00BF00093D0054
:10019000D90140009B0240009502400008B5014B88
:1001A000984708BDA10240000A4BC0F8E430002384
:1001B00043604362836288230360242303604FF417
:1001C000807303604FF4002303604FF40033036037
:1001D000704700BF0041535570B506460C461546A2
:1001E0002A4B984700222A4B1A60002C49D0A3685A
:1001F000032B01D9012070BD236805EB5305B5FB26
:10020000F3F52A1F4FF6FB739A423CD835626368B8
:10021000E268134343F4802242F00E021C490A6054
:10022000A268032A0BD8DFE802F002111C2323F492
:10023000803343F4802343F48773154A1360736853
:10024000134A126813437360002070BD23F4803397
:1002500023F4807343F4802343F00E030C4A1360AD
:10026000EDE743F4A02343F48773094A1360E6E7FC
:1002700023F4807343F4A02343F00E03044A136075
:10028000DDE7012070BD012070BD00BFA901400065
:100290005804002040230360704710230360704718
:1002A000436913F0020FFBD0C1F30801C1610020C4
:1002B0007047000030B585B00F20094CA0470F20D3
:1002C000A047084C002200924CF2503303A920466C
:1002D000054DA8472046054B984705B030BD00BFE7
:1002E00011074000008002406101400039014000D8
:1002F00008B501460148024B984708BD00800240FE
:100300009D014000F0B583B007460E4E01240094D5
:1003100000231A464FF4002130460B4DA8470094A5
:1003200000231A464FF080713046A8473846074BE5
:1003300098470094002322464FF080713046A8472A
:1003400003B0F0BD000E0E40C3054000F1024000B6
:10035000F0B583B007460E4E0124009400232246D8
:100360004FF4002130460B4DA847009400231A4655
:100370004FF080713046A8473846074B98470094A5
:10038000002322464FF080713046A84703B0F0BDED
:10039000000E0E40C3054000F102400038B51120A8
:1003A000084CA04740F62A30074B98473A20A04710
:1003B0000520064DA8473620A0471420A84729202D
:1003C000A04738BD05034000010000205103400054
:1003D0002DE9F04781460F4690461E462A20144DCF
:1003E000A8470020134CA047DFF84CA09AF8000063
:1003F0004844C0B2A0470020A0479AF800004044FB
:10040000C0B2A0472B20A8470020A047DFF82C80CF
:1004100098F800003844C0B2A0470020A04798F8E0
:1004200000003044C0B2A0472C20A847BDE8F087A8
:1004300005034000510340005C0400205D040020DF
:1004400010F0800F01D19F2900D9704738B51446AC
:100450004B1C421CDBB2D2B2034DA847200A034D0D
:10046000A847E0B2A84738BDD1034000510340007F
:100470002DE9F84381460F46124B984705464846FA
:10048000114B9847054013D0104C04F1600603E06F
:10049000B4420DD010345DB12068B842F8D1616823
:1004A0002942F5D0E3689847636825EA0305EFE73A
:1004B000074B1B6823B1074B1B680BB14846984795
:1004C000BDE8F883E9054000ED0540006004002028
:1004D000D4040020D004002008B50B210148024BB1
:1004E000984708BD000E0E407104400008B50C216D
:1004F0000148024B984708BD00100E4071044000AF
:100500004264B1F1C05F39D013D8B1F1006F25D08A
:10051000B1F1805F0AD1036F13430367436F416FEB
:100520000B4023EA02034367426070470029FBD176
:100530007047B1F1205F20D009D8B1F1005FF3D14D
:10054000036F13430367436F13434367ECE7B1F152
:10055000405F12D0B1F1605F0FD0E5E710B4016FDA
:10056000046FD34321401C4619400167436F416F1C
:100570000B4023404367426010BC7047036F016F1C
:100580000B4023EA02030367436F13434367CBE740
:10059000416412F0010F14BF4166016612F00A0FA8
:1005A00014BF0162416212F0020F07D112F0080F6E
:1005B00018BFC0F88410416101607047C0F8801016
:1005C000F9E710B4019C416444B9016643B1016587
:1005D00042B941630161016010BC70474166F5E7B3
:1005E0004165F5E70163F5E7C06C7047806C7047C3
:1005F00070B582B00D46430903F5001303F207738B
:100600005C0201F0F043B3F1005F53D00AD8B3F1BC
:10061000805F2DD0B3F1C05F3BD0B3F1006F15D038
:10062000002023E0B3F1405F55D0B3F1605F52D0BA
:10063000B3F1205FF4D100F01F0101262A4606FA2B
:1006400001F120462F4B984730460FE000F01F0085
:100650000126864032464FF0006120462A4B9847DB
:1006600015F0010F14BF66662666012002B070BD4A
:1006700000F01F000126864032464FF08051204690
:10068000214B984715F0010F14BF666626660120BE
:10069000ECE700F01F000126864032464FF0C051C3
:1006A0002046194B984715F0010F14BF6666266661
:1006B0000120DBE700F01F000126864032464FF0A4
:1006C00000512046104B984715F0010F14BF666685
:1006D00026660120CAE705F0605200F01F010126DE
:1006E00005EA06030093C5F38003B2F1605F14BF0F
:1006F0000022012206FA01F12046044CA0473046B0
:10070000B4E700BF9105400001054000C30540006B
:1007100022281ED81F280CD8114B9A690123834028
:10072000934318D0012303FA00F00D4B1861002009
:10073000704720380A4BD3F80821012383409343A4
:100740000BD0012303FA00F0054BC3F80001002091
:10075000704701207047002070470020704700BF9D
:1007600000040E4010B54FF000611620054CA04764
:100770004FF000611520A0474FF000611720A047FF
:1007800010BD00BFF1054000FEE7000008B5214B99
:10079000214A9A4228D9214B1E4A9A420CD2013B47
:1007A0009B1A23F00303043313441B4951F8040B31
:1007B00042F8040B9A42F9D100BF194B194A9A42E8
:1007C0000AD2013B9B1A23F0030304331344002194
:1007D00042F8041B9A42FBD1134B144A9A60144B03
:1007E0009847144B9847FEE70A4B0B4A9A42E3D2CC
:1007F0000A4B0848181A1146043A02440028DBD074
:10080000C1F1040152F8040943F8040DCA42F9D1B8
:10081000D2E700BF00000020040B40003C04002091
:10082000FC0400203C04002000ED00E0000040003B
:100830006D09400049084000014A024B1A607047A8
:1008400000010004000A0E402DE9F04182B03C4B4B
:1008500098473C4B98470B203B4CA0470B20A047A8
:100860003A4D01242C61C5F8A040009400231A469B
:1008700021462846364FB8474FF400232B61C5F870
:10088000A0304FF48018C5F81080C5F8A0804FF054
:1008900080732B61C5F8A030009400231A464146AE
:1008A0002846B84743F2CE702A4EB0470094002342
:1008B000224641462846B8474AF26A70B04700943B
:1008C0000023224621462846B847DFF89C80404650
:1008D000B047009400231A4621462846B8474046B0
:1008E000B04700940023224621462846B847404698
:1008F000B047009400231A4621462846B847404690
:10090000B04700940023224621462846B847124BA0
:100910009847124C2046B047114B98472046B047A5
:1009200000244FF6FF770F4E0A4D3A4621462046E7
:10093000B0470134E4B24DF63770A847F5E700BF81
:10094000390840006507400011074000000E0E40C6
:10095000C305400001000020B50240007C030500F3
:100960009D03400041044000135C040070B50F4E2D
:100970000F4D761BB61018BF002405D0013455F872
:10098000043B9847A642F9D10A4E0B4D761B00F066
:10099000A7F8B61018BF002406D0013455F8043B60
:1009A0009847A642F9D170BD70BD00BFEC0A400067
:1009B000EC0A4000F40A4000EC0A4000024B13B17C
:1009C000024800F005B8704700000000DD09400053
:1009D000002301461A46184600F01EB838B50A4CE6
:1009E0000A4D641BA4100AD004F18043013B05EBBF
:1009F0008305013C55F804399847002CF9D1BDE82E
:100A0000384000F077B800BF040B4000000B4000F6
:100A1000704700BF704700BF2DE9F8432C4D0646D4
:100A2000286898460F469146FFF7F2FF294B1C684D
:100A3000D4F84831002B3ED05A681F2A1CDC02F142
:100A4000010E76B103EB82010124C1F88890D3F83E
:100A5000880194402043022EC3F88801C1F8088120
:100A600023D00232C3F804E0286843F82270FFF76D
:100A7000D1FF0020BDE8F883174B0BB34FF4C870CB
:100A8000AFF300800346D8B1D4F8482102600021BA
:100A900041600A46C4F848014FF0010EC0F88811C1
:100AA000C0F88C11002EDCD0CCE7D3F88C110C43AD
:100AB000C3F88C41D5E704F5A673C4F84831BBE709
:100AC0002868FFF7A7FF4FF0FF30BDE8F88300BFAD
:100AD00038040020DC0A4000000000001000002064
:100AE000F8B500BFF8BC08BC9E467047BD09400081
:100AF000F1004000F8B500BFF8BC08BC9E46704746
:040B0000CD004000E4
:100B0400BFF35F8F0138FBD1704700000000000085
:100B140000000000FC02002064030020CC0300203D
:100B240000000000000000000000000000000000C1
:100B340000000000000000000000000000000000B1
:100B440000000000000000000000000000000000A1
:100B54000000000000000000000000000000000091
:100B64000000000000000000000000000000000081
:100B74000000000000000000000000000000000071
:100B84000000000000000000000000000000000061
:100B94000000000000000000000000000000000051
:100BA4000000000000000000000000000000000041
:100BB4000000000000000000010000000000000030
:100BC4000E33CDAB34126DE6ECDE05000B000000F5
:100BD4000000000000000000000000000000000011
:100BE4000000000000000000000000000000000001
:100BF40000000000000000000000000000000000F1
:100C040000000000000000000000000000000000E0
:0C0F34000000000000000000D8040020B5
:040000050040078D23
:00000001FF
