:020000040040BA
:1000000000350020A90A4000A50A4000A50A4000CA
:10001000A50A4000A50A4000A50A40000000000013
:10002000000000000000000000000000A50A4000E1
:10003000A50A400000000000A50A4000A50A4000F3
:10004000A50A4000A50A4000A50A4000A50A4000F4
:10005000A50A4000A50A4000A50A400000000000D3
:10006000A50A4000A50A400000000000ED0740007E
:100070000108400000000000A50A4000A50A400059
:100080000000000000000000A50A4000A50A400092
:10009000A50A4000A50A4000A50A4000A50A4000A4
:1000A000A50A4000A50A4000000000000000000072
:1000B00000000000A50A4000A50A4000A50A400073
:1000C000A50A4000A50A4000A50A400010B5054C4D
:1000D000237833B9044B13B10448AFF300800123F4
:1000E000237010BD3C0400200000000050114000AF
:1000F0000C4B43B10C480D4910B5AFF300800C48D0
:10010000036823B910BD0A48036833B97047094B27
:10011000002BF7D0BDE810401847064B002BF5D058
:10012000184700BF000000005011400040040020AC
:10013000501140000000000008B5074B984208D05D
:1001400003F5804398420CBF0F200020034B9847D3
:1001500008BD0E20FAE700BF00400240250A40001B
:1001600010B584B004460093C0230193029200238B
:100170000393064A6946064B98472046054B984725
:100180002046054B984704B010BD00BF00093D0054
:10019000D90140009B0240009502400008B5014B88
:1001A000984708BDA10240000A4BC0F8E430002384
:1001B00043604362836288230360242303604FF417
:1001C000807303604FF4002303604FF40033036037
:1001D000704700BF0041535570B506460C461546A2
:1001E0002A4B984700222A4B1A60002C49D0A3685A
:1001F000032B01D9012070BD236805EB5305B5FB26
:10020000F3F52A1F4FF6FB739A423CD835626368B8
:10021000E268134343F4802242F00E021C490A6054
:10022000A268032A0BD8DFE802F002111C2323F492
:10023000803343F4802343F48773154A1360736853
:10024000134A126813437360002070BD23F4803397
:1002500023F4807343F4802343F00E030C4A1360AD
:10026000EDE743F4A02343F48773094A1360E6E7FC
:1002700023F4807343F4A02343F00E03044A136075
:10028000DDE7012070BD012070BD00BFA901400065
:100290005804002040230360704710230360704718
:1002A000436913F0020FFBD0C1F30801C1610020C4
:1002B0007047000010B4054C04EA0343C2F30B027C
:1002C00013430B43436010BC704700BF0000FF0F97
:1002D00030B585B00F20094CA0470F20A047084C2F
:1002E000002200924CF2503303A92046054DA84746
:1002F0002046054B984705B030BD00BF250A400099
:1003000000800240610140003901400008B501460B
:100310000148024B984708BD008002409D01400003
:1003200030B583B004460123009300231A464FF4EE
:1003300000210648064DA8472046064B98474FF433
:100340008F70054B984703B030BD00BF000E0E40C4
:10035000D70840000D0340000100002030B583B0F5
:1003600004460122009200234FF400210548064D67
:10037000A8472046054B98474FF48F70044B984789
:1003800003B030BD000E0E40D70840000D03400002
:100390000100002038B51120084CA04740F62A3053
:1003A000074B98473A20A0470520064DA84736201E
:1003B000A0471420A8472920A04738BD21034000AA
:1003C000010000205D0340002DE9F04781460F4603
:1003D00090461E462A20144DA8470020134CA047E3
:1003E000DFF84CA09AF800004844C0B2A0470020B3
:1003F000A0479AF800004044C0B2A0472B20A8476D
:100400000020A047DFF82C8098F800003844C0B2E4
:10041000A0470020A04798F800003044C0B2A04791
:100420002C20A847BDE8F087210340005D03400071
:100430005C0400205D04002010F0800F01D19F2992
:1004400000D9704738B514464B1C421CDBB2D2B2FF
:10045000034DA847200A034DA847E0B2A84738BD7E
:10046000C90340005D0340002DE9F04782B0BDF8AC
:10047000286010F0800F3ED190469A469F293AD8C6
:100480008318013B7F2BC4BFC0F180085FFA88F856
:1004900001EB0A03013B9F2BC4BFC1F1A0035FFA2C
:1004A00083FA4B1E5344421E4244DBB2D2B2134C79
:1004B000A047370AF6B20122009200234FF4002130
:1004C0000F48104CA047BAF1000F14D0C1460E4D92
:1004D0000CE03846A8473046A847631E13F0FF04D7
:1004E000F7D10AF1FF3313F0FF0A04D04C46B8F1FC
:1004F000000FEED1F5E702B0BDE8F087C903400078
:10050000000E0E40D70840000D03400010B582B029
:100510000090A023802200210846024CA04702B090
:1005200010BD00BF6904400010F0800F29D1F0B564
:1005300083B015469F2922D88A18013A9F2AC4BF42
:10054000C1F1A005EDB21F0ADEB24B1E2B44DBB297
:1005500002460C4CA0470122009200234FF40021D8
:1005600009480A4CA0476C1EE4B245B1084D384614
:10057000A8473046A847013CE4B2FF2CF7D103B0AE
:10058000F0BD7047C9034000000E0E40D708400080
:100590000D0340002DE9F843BDF820801718B8423C
:1005A0000DDA84B21E460D46DFF8189043463246F7
:1005B0002946E0B2C8470134A4B2BC42F6DBBDE82C
:1005C000F88300BF290540002DE9F04F8BB006905D
:1005D00004919846BDF850909DF8546010F0800F3B
:1005E00069D19F2967D8002E08BF0126A2F12003F8
:1005F000DBB25F2B134634BF13463F2319460793E4
:10060000533B03EB8303A1F1200202EB8202089229
:1006100003904FF0000A294AD3180993DFF8A8B0D5
:100620003AE0099B13F80A703EE0049B59194246D0
:10063000C9B20598224B98470AE0C84508D0012E58
:1006400019D0CDF800903346324621460398D8475A
:100650007F0801353444E4B2072D14D017F0010FA0
:10066000EBD0012EE1D0CDF8008033463246214652
:100670000398D847ECE7049B59194A46C9B2059834
:100680000F4B9847E4E70AF1010A039B3344DBB2BE
:100690000393BAF1050F0ED0079B522BC1D8094B1B
:1006A000089A134413F80A70049C0025069B5344CF
:1006B000DBB20593D2E70BB0BDE8F08F3C104000F1
:1006C000390440003C0F4000950540002DE9F04FF3
:1006D00087B00446029117460393BDF840A09DF8E9
:1006E00044601046244B984780B2002841D006EB66
:1006F00086030493C6EBC6030333DBB2059306EB14
:1007000046084FEA48085FFA88F83D46013880B24B
:1007100001300744DFF86490DFF864B03346564692
:100720009A460FE02A78CDF804A00096039B029920
:100730002046D8474444E4B2802C28BF80240135A9
:10074000BD4216D099F80030002BEBD0049BE31883
:10075000802BE7DD029B059A1344DBB2A02B28BF58
:10076000A02302932B78202B01D00024DAE7002469
:10077000E5E707B0BDE8F08F410D40000A0000201A
:10078000C90540002DE9F84381460F46124B9847B2
:1007900005464846114B9847054013D0104C04F1CC
:1007A000600603E0B4420DD010345DB12068B84259
:1007B000F8D161682942F5D0E3689847636825EA73
:1007C0000305EFE7074B1B6823B1074B1B680BB111
:1007D00048469847BDE8F883FD08400001094000FD
:1007E00060040020D4040020D004002008B50B21B0
:1007F0000148024B984708BD000E0E408507400097
:1008000008B50C210148024B984708BD00100E4066
:10081000850740004264B1F1C05F39D013D8B1F10F
:10082000006F25D0B1F1805F0AD1036F13430367D6
:10083000436F416F0B4023EA0203436742607047F6
:100840000029FBD17047B1F1205F20D009D8B1F168
:10085000005FF3D1036F13430367436F1343436791
:10086000ECE7B1F1405F12D0B1F1605F0FD0E5E786
:1008700010B4016F046FD34321401C461940016737
:10088000436F416F0B4023404367426010BC704789
:10089000036F016F0B4023EA02030367436F1343A7
:1008A0004367CBE7416412F0010F14BF4166016654
:1008B00012F00A0F14BF0162416212F0020F07D159
:1008C00012F0080F18BFC0F8841041610160704732
:1008D000C0F88010F9E710B4019C416444B9016686
:1008E00043B1016542B941630161016010BC7047C9
:1008F0004166F5E74165F5E70163F5E7C06C7047D0
:10090000806C704770B582B00D46430903F5001343
:1009100003F207735C0201F0F043B3F1005F53D0C0
:100920000AD8B3F1805F2DD0B3F1C05F3BD0B3F1F3
:10093000006F15D0002023E0B3F1405F55D0B3F134
:10094000605F52D0B3F1205FF4D100F01F010126A7
:100950002A4606FA01F120462F4B984730460FE011
:1009600000F01F000126864032464FF0006120460D
:100970002A4B984715F0010F14BF666626660120C2
:1009800002B070BD00F01F000126864032464FF0D5
:1009900080512046214B984715F0010F14BF666621
:1009A00026660120ECE700F01F0001268640324653
:1009B0004FF0C0512046194B984715F0010F14BF56
:1009C000666626660120DBE700F01F0001268640F0
:1009D00032464FF000512046104B984715F0010F5A
:1009E00014BF666626660120CAE705F0605200F073
:1009F0001F01012605EA06030093C5F38003B2F147
:100A0000605F14BF0022012206FA01F12046044C67
:100A1000A0473046B4E700BFA508400015084000D5
:100A2000D708400022281ED81F280CD8114B9A69DD
:100A300001238340934318D0012303FA00F00D4BA8
:100A400018610020704720380A4BD3F80821012391
:100A5000834093430BD0012303FA00F0054BC3F806
:100A600000010020704701207047002070470020DF
:100A7000704700BF00040E4010B54FF00061162013
:100A8000074CA0474FF000611520A0474FF00061D0
:100A90001720A0474FF000611820A04710BD00BFED
:100AA00005094000FEE7000008B5214B214A9A42A3
:100AB00028D9214B1E4A9A420CD2013B9B1A23F0A3
:100AC0000303043313441B4951F8040B42F8040B8D
:100AD0009A42F9D100BF194B194A9A420AD2013BF6
:100AE0009B1A23F0030304331344002142F8041B30
:100AF0009A42FBD1134B144A9A60144B9847144BFB
:100B00009847FEE70A4B0B4A9A42E3D20A4B084841
:100B1000181A1146043A02440028DBD0C1F104013E
:100B200052F8040943F8040DCA42F9D1D2E700BFD4
:100B300000000020501140003C040020FC04002074
:100B40003C04002000ED00E000004000D10C40001B
:100B5000650B4000014A024B1A6070470001000417
:100B6000000A0E402DE9F04182B0494B9847494BAD
:100B7000984700231A464FF400414748474CA04786
:100B80000B20474FB8470B20B847464D01242C6136
:100B9000C5F8A040009400231A4621462846424E3C
:100BA000B0470C20B8470C20B847404802210161EB
:100BB000C0F8A010009400231A46B0474FF4002359
:100BC0002B61C5F8A0304FF48018C5F81080C5F827
:100BD000A0804FF080732B61C5F8A03000940023F3
:100BE0001A4641462846B04743F2CE70304FB847C8
:100BF00000940023224641462846B0474AF26A70D4
:100C0000B847009400231A4621462846B047294891
:100C1000B84700940023224621462846B047264B79
:100C20009847009400231A4641462846B0474AF2A6
:100C30006A70B84700940023224641462846B047D0
:100C40004AF26A70B8471D4B98474AF26A70B84733
:100C50004FF478401A4B98470194002400944FF6C3
:100C6000E073184A0A211C20174DA8474FF6FF775A
:100C7000164E0F4D3A4621462046B047632C9ABF88
:100C80000134E4B2002443F2CE70A847F2E700BF7B
:100C9000550B4000790A400050140E40B502400048
:100CA000250A4000000E0E40D708400000100E40FC
:100CB00001000020135C0400D102400095034000B5
:100CC0000D05400018114000CD06400039044000D9
:100CD00070B50F4E0F4D761BB61018BF002405D00F
:100CE000013455F8043B9847A642F9D10A4E0B4D02
:100CF000761B00F01BFAB61018BF002406D0013492
:100D000055F8043B9847A642F9D170BD70BD00BFAD
:100D100038114000381140004011400038114000A7
:100D200000000000000000000000000000000000C3
:100D300000000000000000000000000000000000B3
:100D400090F800F06DE9024520F007016FF0000C0B
:100D500010F0070491F820F040F049804FF00004B3
:100D60006FF00700D1E9002391F840F000F108008E
:100D700082FA4CF2A4FA8CF283FA4CF3A2FA8CF3C6
:100D80004BBBD1E9022382FA4CF200F10800A4FA2D
:100D90008CF283FA4CF3A2FA8CF3E3B9D1E9042381
:100DA00082FA4CF200F10800A4FA8CF283FA4CF3B8
:100DB000A2FA8CF37BB9D1E9062301F1200182FA72
:100DC0004CF200F10800A4FA8CF283FA4CF3A2FA78
:100DD0008CF3002BC6D0002A04BF04301A4612BA86
:100DE000B2FA82F2FDE8024500EBD2007047D1E989
:100DF000002304F00305C4F100004FEAC50514F018
:100E0000040F91F840F00CFA05F562EA05021CBFE8
:100E100063EA050362464FF00004A9E7024B13B1F1
:100E2000024800F005B87047000000003D0E400089
:100E3000002301461A46184600F01EB838B50A4C81
:100E40000A4D641BA4100AD004F18043013B05EB5A
:100E50008305013C55F804399847002CF9D1BDE8C9
:100E6000384000F06DB900BF501140004C114000F7
:100E7000704700BF704700BF2DE9F8432C4D064670
:100E8000286898460F469146FFF7F2FF294B1C68E9
:100E9000D4F84831002B3ED05A681F2A1CDC02F1DE
:100EA000010E76B103EB82010124C1F88890D3F8DA
:100EB000880194402043022EC3F88801C1F80881BC
:100EC00023D00232C3F804E0286843F82270FFF709
:100ED000D1FF0020BDE8F883174B0BB34FF4C87067
:100EE000AFF300800346D8B1D4F848210260002156
:100EF00041600A46C4F848014FF0010EC0F888115D
:100F0000C0F88C11002EDCD0CCE7D3F88C110C4348
:100F1000C3F88C41D5E704F5A673C4F84831BBE7A4
:100F20002868FFF7A7FF4FF0FF30BDE8F88300BF48
:100F300038040020281140000000000000000000DC
:100F40000000005F00000007000700147F147F14FA
:100F5000242A7F2A1223130864623649562050003F
:100F600008070300001C2241000041221C002A1C2B
:100F70007F1C2A08083E0808008070300008080816
:100F80000808000060600020100804023E51494536
:100F90003E00427F400072494949462141494D3354
:100FA0001814127F1027454545393C4A49493141BB
:100FB000211109073649494936464949291E000089
:100FC00014000000403400000008142241141414DE
:100FD0001414004122140802015909063E415D59CA
:100FE0004E7C1211127C7F494949363E41414122D3
:100FF0007F4141413E7F494949417F090909013EFD
:10100000414151737F0808087F00417F4100204023
:10101000413F017F081422417F404040407F021C35
:10102000027F7F0408107F3E4141413E7F0909094C
:10103000063E4151215E7F0919294600264949494A
:101040003203017F01033F4040403F1F2040201FEB
:101050003F4038403F63140814630304780403617D
:1010600059494D43007F414141020408102000418D
:1010700041417F0402010204404040404000030718
:10108000080020545478407F28444438384444446D
:1010900028384444287F385454541800087E0902E4
:1010A00018A4A49C787F0804047800447D400020A4
:1010B00040403D007F1028440000417F40007C04F8
:1010C0007804787C080404783844444438FC1824B4
:1010D000241818242418FC7C080404084854545488
:1010E0002404043F44243C4040207C1C2040201C1D
:1010F0003C4030403C44281028444C9090907C4424
:1011000064544C4400083641000000770000004160
:10111000360800020102040248656C6C6F20576FAC
:10112000726C64210000000010000020F8B500BFC0
:10113000F8BC08BC9E4670471D0E4000F100400000
:10114000F8B500BFF8BC08BC9E467047CD00400013
:10115000BFF35F8F0138FBD1704701000000000032
:1011600000000000FC02002064030020CC030020EB
:10117000000000000000000000000000000000006F
:10118000000000000000000000000000000000005F
:10119000000000000000000000000000000000004F
:1011A000000000000000000000000000000000003F
:1011B000000000000000000000000000000000002F
:1011C000000000000000000000000000000000001F
:1011D000000000000000000000000000000000000F
:1011E00000000000000000000000000000000000FF
:1011F00000000000000000000000000000000000EF
:1012000000000000000000000100000000000000DD
:101210000E33CDAB34126DE6ECDE05000B000000A2
:1012200000000000000000000000000000000000BE
:1012300000000000000000000000000000000000AE
:10124000000000000000000000000000000000009E
:10125000000000000000000000000000000000008E
:0C1580000000000000000000D804002063
:0400000500400AA904
:00000001FF
